{
  "_format": "hh-sol-artifact-1",
  "contractName": "BAMDonationNFTTracker",
  "sourceName": "contracts/BAMDonationNFTTracker.sol",
  "abi": [
    {
      "inputs": [
        {
          "internalType": "address",
          "name": "_bamDonation",
          "type": "address"
        },
        {
          "internalType": "address",
          "name": "_donationNFT",
          "type": "address"
        }
      ],
      "stateMutability": "nonpayable",
      "type": "constructor"
    },
    {
      "anonymous": false,
      "inputs": [
        {
          "indexed": false,
          "internalType": "uint256",
          "name": "chainId",
          "type": "uint256"
        },
        {
          "indexed": false,
          "internalType": "address",
          "name": "donor",
          "type": "address"
        }
      ],
      "name": "CrossChainDonorRegistered",
      "type": "event"
    },
    {
      "anonymous": false,
      "inputs": [
        {
          "indexed": true,
          "internalType": "address",
          "name": "donor",
          "type": "address"
        },
        {
          "indexed": false,
          "internalType": "uint256",
          "name": "donationIndex",
          "type": "uint256"
        },
        {
          "indexed": false,
          "internalType": "uint256",
          "name": "tokenId",
          "type": "uint256"
        },
        {
          "indexed": false,
          "internalType": "uint256",
          "name": "donationAmount",
          "type": "uint256"
        }
      ],
      "name": "NFTClaimed",
      "type": "event"
    },
    {
      "anonymous": false,
      "inputs": [
        {
          "indexed": true,
          "internalType": "address",
          "name": "previousOwner",
          "type": "address"
        },
        {
          "indexed": true,
          "internalType": "address",
          "name": "newOwner",
          "type": "address"
        }
      ],
      "name": "OwnershipTransferred",
      "type": "event"
    },
    {
      "anonymous": false,
      "inputs": [
        {
          "indexed": false,
          "internalType": "address",
          "name": "account",
          "type": "address"
        }
      ],
      "name": "Paused",
      "type": "event"
    },
    {
      "anonymous": false,
      "inputs": [
        {
          "indexed": false,
          "internalType": "address",
          "name": "account",
          "type": "address"
        }
      ],
      "name": "Unpaused",
      "type": "event"
    },
    {
      "inputs": [
        {
          "internalType": "address",
          "name": "donor",
          "type": "address"
        },
        {
          "internalType": "uint256",
          "name": "donationIndex",
          "type": "uint256"
        }
      ],
      "name": "adminMintNFT",
      "outputs": [],
      "stateMutability": "nonpayable",
      "type": "function"
    },
    {
      "inputs": [],
      "name": "bamDonation",
      "outputs": [
        {
          "internalType": "contract IBAMDonation",
          "name": "",
          "type": "address"
        }
      ],
      "stateMutability": "view",
      "type": "function"
    },
    {
      "inputs": [
        {
          "internalType": "uint256",
          "name": "chainId",
          "type": "uint256"
        },
        {
          "internalType": "uint256",
          "name": "donationAmount",
          "type": "uint256"
        }
      ],
      "name": "claimCrossChainNFT",
      "outputs": [],
      "stateMutability": "nonpayable",
      "type": "function"
    },
    {
      "inputs": [
        {
          "internalType": "uint256",
          "name": "donationIndex",
          "type": "uint256"
        }
      ],
      "name": "claimNFT",
      "outputs": [],
      "stateMutability": "nonpayable",
      "type": "function"
    },
    {
      "inputs": [
        {
          "internalType": "uint256",
          "name": "",
          "type": "uint256"
        }
      ],
      "name": "claimedDonations",
      "outputs": [
        {
          "internalType": "bool",
          "name": "",
          "type": "bool"
        }
      ],
      "stateMutability": "view",
      "type": "function"
    },
    {
      "inputs": [
        {
          "internalType": "bytes32",
          "name": "",
          "type": "bytes32"
        }
      ],
      "name": "crossChainDonorRegistry",
      "outputs": [
        {
          "internalType": "bool",
          "name": "",
          "type": "bool"
        }
      ],
      "stateMutability": "view",
      "type": "function"
    },
    {
      "inputs": [],
      "name": "donationNFT",
      "outputs": [
        {
          "internalType": "contract IBAMDonationNFT",
          "name": "",
          "type": "address"
        }
      ],
      "stateMutability": "view",
      "type": "function"
    },
    {
      "inputs": [
        {
          "internalType": "address",
          "name": "donor",
          "type": "address"
        }
      ],
      "name": "getDonationIndices",
      "outputs": [
        {
          "internalType": "uint256[]",
          "name": "",
          "type": "uint256[]"
        }
      ],
      "stateMutability": "view",
      "type": "function"
    },
    {
      "inputs": [
        {
          "internalType": "uint256",
          "name": "chainId",
          "type": "uint256"
        },
        {
          "internalType": "address",
          "name": "donor",
          "type": "address"
        }
      ],
      "name": "hasDonatedOnChain",
      "outputs": [
        {
          "internalType": "bool",
          "name": "",
          "type": "bool"
        }
      ],
      "stateMutability": "view",
      "type": "function"
    },
    {
      "inputs": [
        {
          "internalType": "uint256",
          "name": "donationIndex",
          "type": "uint256"
        }
      ],
      "name": "isDonationClaimed",
      "outputs": [
        {
          "internalType": "bool",
          "name": "",
          "type": "bool"
        }
      ],
      "stateMutability": "view",
      "type": "function"
    },
    {
      "inputs": [],
      "name": "owner",
      "outputs": [
        {
          "internalType": "address",
          "name": "",
          "type": "address"
        }
      ],
      "stateMutability": "view",
      "type": "function"
    },
    {
      "inputs": [],
      "name": "pause",
      "outputs": [],
      "stateMutability": "nonpayable",
      "type": "function"
    },
    {
      "inputs": [],
      "name": "paused",
      "outputs": [
        {
          "internalType": "bool",
          "name": "",
          "type": "bool"
        }
      ],
      "stateMutability": "view",
      "type": "function"
    },
    {
      "inputs": [
        {
          "internalType": "uint256",
          "name": "chainId",
          "type": "uint256"
        },
        {
          "internalType": "address",
          "name": "donor",
          "type": "address"
        }
      ],
      "name": "registerCrossChainDonor",
      "outputs": [],
      "stateMutability": "nonpayable",
      "type": "function"
    },
    {
      "inputs": [
        {
          "internalType": "address",
          "name": "newOwner",
          "type": "address"
        }
      ],
      "name": "transferOwnership",
      "outputs": [],
      "stateMutability": "nonpayable",
      "type": "function"
    },
    {
      "inputs": [],
      "name": "unpause",
      "outputs": [],
      "stateMutability": "nonpayable",
      "type": "function"
    }
  ],
  "bytecode": "0x608060405234801561001057600080fd5b50604051620013fb380380620013fb83398101604081905261003191610158565b60016000819055805460ff191690556001600160a01b03821661009b5760405162461bcd60e51b815260206004820152601b60248201527f496e76616c69642042414d446f6e6174696f6e2061646472657373000000000060448201526064015b60405180910390fd5b6001600160a01b0381166100f15760405162461bcd60e51b815260206004820152601360248201527f496e76616c6964204e46542061646472657373000000000000000000000000006044820152606401610092565b600180546001600160a01b0393841661010002610100600160a81b031990911617905560028054919092166001600160a01b031991821617909155600580549091163317905561018b565b80516001600160a01b038116811461015357600080fd5b919050565b6000806040838503121561016b57600080fd5b6101748361013c565b91506101826020840161013c565b90509250929050565b611260806200019b6000396000f3fe608060405234801561001057600080fd5b50600436106101005760003560e01c80636a207a11116100975780639c6e849d116100665780639c6e849d1461021f578063c55ea3771461023f578063f2fde38b14610262578063fe5c873a1461027557600080fd5b80636a207a11146101d95780637cb822a8146101ec5780638456cb59146102045780638da5cb5b1461020c57600080fd5b80633f4ba83a116100d35780633f4ba83a146101905780634f8d0371146101985780635bb87a7c146101bb5780635c975abb146101ce57600080fd5b80631647310d146101055780631d00cc331461011a5780632384220214610152578063255bc2131461017d575b600080fd5b610118610113366004610e34565b610288565b005b61013d610128366004610e64565b60009081526003602052604090205460ff1690565b60405190151581526020015b60405180910390f35b600254610165906001600160a01b031681565b6040516001600160a01b039091168152602001610149565b61013d61018b366004610e34565b610345565b61011861038b565b61013d6101a6366004610e64565b60046020526000908152604090205460ff1681565b6101186101c9366004610e7d565b6103bf565b60015460ff1661013d565b6101186101e7366004610ea9565b610678565b6001546101659061010090046001600160a01b031681565b61011861088b565b600554610165906001600160a01b031681565b61023261022d366004610ecb565b6108bd565b6040516101499190610eef565b61013d61024d366004610e64565b60036020526000908152604090205460ff1681565b610118610270366004610ecb565b61093b565b610118610283366004610e64565b610a17565b6005546001600160a01b031633146102bb5760405162461bcd60e51b81526004016102b290610f33565b60405180910390fd5b600082826040516020016102d0929190610f5a565b60408051601f198184030181528282528051602091820120600081815260048352839020805460ff191660011790558684526001600160a01b0386169184019190915292507f941f1c1a68f6f5cf4a0f00b4681985013fa5f144c8f6c711c617afb7862256db910160405180910390a1505050565b600080838360405160200161035b929190610f5a565b60408051808303601f1901815291815281516020928301206000908152600490925290205460ff16949350505050565b6005546001600160a01b031633146103b55760405162461bcd60e51b81526004016102b290610f33565b6103bd610caa565b565b6005546001600160a01b031633146103e95760405162461bcd60e51b81526004016102b290610f33565b6103f1610cfc565b6103f9610d42565b600154604051631f0c4d5f60e31b81526004810183905260009182916101009091046001600160a01b03169063f8626af890602401600060405180830381865afa15801561044b573d6000803e3d6000fd5b505050506040513d6000823e601f3d908101601f191682016040526104739190810190610fe2565b5050505091509150836001600160a01b0316826001600160a01b0316146104cd5760405162461bcd60e51b815260206004820152600e60248201526d088dedcdee440dad2e6dac2e8c6d60931b60448201526064016102b2565b60008381526003602052604090205460ff16156104fc5760405162461bcd60e51b81526004016102b2906110d6565b600254604051635e8f07fb60e01b81526001600160a01b03868116600483015290911690635e8f07fb90602401602060405180830381865afa158015610546573d6000803e3d6000fd5b505050506040513d601f19601f8201168201806040525081019061056a919061111b565b156105875760405162461bcd60e51b81526004016102b29061113d565b600083815260036020526040808220805460ff1916600117905560025490516379264f8360e11b81526001600160a01b038781166004830152602482018590529091169063f24c9f06906044016020604051808303816000875af11580156105f3573d6000803e3d6000fd5b505050506040513d601f19601f82011682018060405250810190610617919061116b565b60408051868152602081018390529081018490529091506001600160a01b038616907f7213dc8f744bdcd10af666fc43835c0838e2716eef399c3c6548dba41858bbbf906060015b60405180910390a25050506106746001600055565b5050565b610680610cfc565b610688610d42565b60405133906000906106a09085908490602001610f5a565b60408051601f1981840301815291815281516020928301206000818152600490935291205490915060ff166107235760405162461bcd60e51b815260206004820152602360248201527f4e6f7420726567697374657265642061732063726f73732d636861696e20646f6044820152623737b960e91b60648201526084016102b2565b600254604051635e8f07fb60e01b81526001600160a01b03848116600483015290911690635e8f07fb90602401602060405180830381865afa15801561076d573d6000803e3d6000fd5b505050506040513d601f19601f82011682018060405250810190610791919061111b565b156107ae5760405162461bcd60e51b81526004016102b29061113d565b6000818152600460208190526040808320805460ff1916905560025490516379264f8360e11b81526001600160a01b03868116938201939093526024810187905291169063f24c9f06906044016020604051808303816000875af115801561081a573d6000803e3d6000fd5b505050506040513d601f19601f8201168201806040525081019061083e919061116b565b6040805160008152602081018390529081018690529091506001600160a01b038416907f7213dc8f744bdcd10af666fc43835c0838e2716eef399c3c6548dba41858bbbf9060600161065f565b6005546001600160a01b031633146108b55760405162461bcd60e51b81526004016102b290610f33565b6103bd610d9b565b600154604051633eca9dc760e21b81526001600160a01b0383811660048301526060926101009004169063fb2a771c90602401600060405180830381865afa15801561090d573d6000803e3d6000fd5b505050506040513d6000823e601f3d908101601f191682016040526109359190810190611184565b92915050565b6005546001600160a01b031633146109655760405162461bcd60e51b81526004016102b290610f33565b6001600160a01b0381166109bb5760405162461bcd60e51b815260206004820152601d60248201527f4e6577206f776e657220697320746865207a65726f206164647265737300000060448201526064016102b2565b6005546040516001600160a01b038084169216907f8be0079c531659141344cd1fd0a4f28419497f9722a3daafe3b4186f6b6457e090600090a3600580546001600160a01b0319166001600160a01b0392909216919091179055565b610a1f610cfc565b610a27610d42565b600154604051631f0c4d5f60e31b81526004810183905260009182916101009091046001600160a01b03169063f8626af890602401600060405180830381865afa158015610a79573d6000803e3d6000fd5b505050506040513d6000823e601f3d908101601f19168201604052610aa19190810190610fe2565b5050505091509150336001600160a01b0316826001600160a01b031614610b015760405162461bcd60e51b81526020600482015260146024820152734f6e6c7920646f6e6f722063616e20636c61696d60601b60448201526064016102b2565b60008381526003602052604090205460ff1615610b305760405162461bcd60e51b81526004016102b2906110d6565b600254604051635e8f07fb60e01b81526001600160a01b03848116600483015290911690635e8f07fb90602401602060405180830381865afa158015610b7a573d6000803e3d6000fd5b505050506040513d601f19601f82011682018060405250810190610b9e919061111b565b15610bbb5760405162461bcd60e51b81526004016102b29061113d565b600083815260036020526040808220805460ff1916600117905560025490516379264f8360e11b81526001600160a01b038581166004830152602482018590529091169063f24c9f06906044016020604051808303816000875af1158015610c27573d6000803e3d6000fd5b505050506040513d601f19601f82011682018060405250810190610c4b919061116b565b60408051868152602081018390529081018490529091506001600160a01b038416907f7213dc8f744bdcd10af666fc43835c0838e2716eef399c3c6548dba41858bbbf9060600160405180910390a2505050610ca76001600055565b50565b610cb2610dd6565b6001805460ff191690557f5db9ee0a495bf2e6ff9c91a7834c1ba4fdd244a5e8aa4e537bd38aeae4b073aa335b6040516001600160a01b03909116815260200160405180910390a1565b60015460ff16156103bd5760405162461bcd60e51b815260206004820152601060248201526f14185d5cd8589b194e881c185d5cd95960821b60448201526064016102b2565b600260005403610d945760405162461bcd60e51b815260206004820152601f60248201527f5265656e7472616e637947756172643a207265656e7472616e742063616c6c0060448201526064016102b2565b6002600055565b610da3610cfc565b6001805460ff1916811790557f62e78cea01bee320cd4e420270b5ea74000d11b0c9f74754ebdbfc544b05a25833610cdf565b60015460ff166103bd5760405162461bcd60e51b815260206004820152601460248201527314185d5cd8589b194e881b9bdd081c185d5cd95960621b60448201526064016102b2565b6001600160a01b0381168114610ca757600080fd5b60008060408385031215610e4757600080fd5b823591506020830135610e5981610e1f565b809150509250929050565b600060208284031215610e7657600080fd5b5035919050565b60008060408385031215610e9057600080fd5b8235610e9b81610e1f565b946020939093013593505050565b60008060408385031215610ebc57600080fd5b50508035926020909101359150565b600060208284031215610edd57600080fd5b8135610ee881610e1f565b9392505050565b6020808252825182820181905260009190848201906040850190845b81811015610f2757835183529284019291840191600101610f0b565b50909695505050505050565b6020808252600d908201526c2737ba103a34329037bbb732b960991b604082015260600190565b91825260601b6bffffffffffffffffffffffff1916602082015260340190565b8051610f8581610e1f565b919050565b634e487b7160e01b600052604160045260246000fd5b604051601f8201601f1916810167ffffffffffffffff81118282101715610fc957610fc9610f8a565b604052919050565b805160ff81168114610f8557600080fd5b60008060008060008060c08789031215610ffb57600080fd5b865161100681610e1f565b80965050602080880151955060408801519450606088015167ffffffffffffffff8082111561103457600080fd5b818a0191508a601f83011261104857600080fd5b81518181111561105a5761105a610f8a565b61106c601f8201601f19168501610fa0565b91508082528b8482850101111561108257600080fd5b60005b818110156110a0578381018501518382018601528401611085565b506000848284010152508095505050506110bc60808801610f7a565b91506110ca60a08801610fd1565b90509295509295509295565b60208082526025908201527f4e465420616c726561647920636c61696d656420666f72207468697320646f6e60408201526430ba34b7b760d91b606082015260800190565b60006020828403121561112d57600080fd5b81518015158114610ee857600080fd5b602080825260149082015273105b1c9958591e481c9958d95a5d99590813919560621b604082015260600190565b60006020828403121561117d57600080fd5b5051919050565b6000602080838503121561119757600080fd5b825167ffffffffffffffff808211156111af57600080fd5b818501915085601f8301126111c357600080fd5b8151818111156111d5576111d5610f8a565b8060051b91506111e6848301610fa0565b818152918301840191848101908884111561120057600080fd5b938501935b8385101561121e57845182529385019390850190611205565b9897505050505050505056fea2646970667358221220511beb1185c3fea84a3c04c0464af46b9236d69764440250b159b6f2605f0f3564736f6c63430008130033",
  "linkReferences": {},
  "deployedLinkReferences": {}
}